{
  "_format": "hh-sol-artifact-1",
  "contractName": "HealthInsurance",
  "sourceName": "contracts/HealthInsurance.sol",
  "abi": [
    {
      "inputs": [],
      "stateMutability": "nonpayable",
      "type": "constructor"
    },
    {
      "anonymous": false,
      "inputs": [
        {
          "indexed": true,
          "internalType": "address",
          "name": "user",
          "type": "address"
        },
        {
          "indexed": false,
          "internalType": "uint256",
          "name": "planId",
          "type": "uint256"
        },
        {
          "indexed": false,
          "internalType": "uint256",
          "name": "peopleCount",
          "type": "uint256"
        },
        {
          "indexed": false,
          "internalType": "uint256",
          "name": "totalCost",
          "type": "uint256"
        }
      ],
      "name": "InsurancePurchased",
      "type": "event"
    },
    {
      "anonymous": false,
      "inputs": [
        {
          "indexed": true,
          "internalType": "address",
          "name": "user",
          "type": "address"
        },
        {
          "indexed": false,
          "internalType": "uint256",
          "name": "medicationId",
          "type": "uint256"
        },
        {
          "indexed": false,
          "internalType": "uint256",
          "name": "packageSize",
          "type": "uint256"
        },
        {
          "indexed": false,
          "internalType": "uint256",
          "name": "quantity",
          "type": "uint256"
        },
        {
          "indexed": false,
          "internalType": "uint256",
          "name": "totalCost",
          "type": "uint256"
        }
      ],
      "name": "MedicationPurchased",
      "type": "event"
    },
    {
      "anonymous": false,
      "inputs": [
        {
          "indexed": true,
          "internalType": "address",
          "name": "previousOwner",
          "type": "address"
        },
        {
          "indexed": true,
          "internalType": "address",
          "name": "newOwner",
          "type": "address"
        }
      ],
      "name": "OwnershipTransferred",
      "type": "event"
    },
    {
      "anonymous": false,
      "inputs": [
        {
          "indexed": true,
          "internalType": "address",
          "name": "to",
          "type": "address"
        },
        {
          "indexed": false,
          "internalType": "uint256",
          "name": "amount",
          "type": "uint256"
        }
      ],
      "name": "WithdrawalMade",
      "type": "event"
    },
    {
      "inputs": [
        {
          "internalType": "string",
          "name": "_name",
          "type": "string"
        },
        {
          "internalType": "string",
          "name": "_description",
          "type": "string"
        },
        {
          "internalType": "uint256",
          "name": "_basePriceWei",
          "type": "uint256"
        }
      ],
      "name": "addInsurancePlan",
      "outputs": [],
      "stateMutability": "nonpayable",
      "type": "function"
    },
    {
      "inputs": [
        {
          "internalType": "string",
          "name": "_name",
          "type": "string"
        },
        {
          "internalType": "string",
          "name": "_description",
          "type": "string"
        },
        {
          "internalType": "string",
          "name": "_category",
          "type": "string"
        },
        {
          "internalType": "uint256",
          "name": "_priceWei",
          "type": "uint256"
        }
      ],
      "name": "addMedication",
      "outputs": [],
      "stateMutability": "nonpayable",
      "type": "function"
    },
    {
      "inputs": [],
      "name": "getAllInsurancePlans",
      "outputs": [
        {
          "components": [
            {
              "internalType": "string",
              "name": "name",
              "type": "string"
            },
            {
              "internalType": "string",
              "name": "description",
              "type": "string"
            },
            {
              "internalType": "uint256",
              "name": "basePriceWei",
              "type": "uint256"
            }
          ],
          "internalType": "struct HealthInsurance.InsurancePlan[]",
          "name": "",
          "type": "tuple[]"
        }
      ],
      "stateMutability": "view",
      "type": "function"
    },
    {
      "inputs": [],
      "name": "getAllMedications",
      "outputs": [
        {
          "components": [
            {
              "internalType": "string",
              "name": "name",
              "type": "string"
            },
            {
              "internalType": "string",
              "name": "description",
              "type": "string"
            },
            {
              "internalType": "string",
              "name": "category",
              "type": "string"
            },
            {
              "internalType": "uint256",
              "name": "priceWei",
              "type": "uint256"
            }
          ],
          "internalType": "struct HealthInsurance.Medication[]",
          "name": "",
          "type": "tuple[]"
        }
      ],
      "stateMutability": "view",
      "type": "function"
    },
    {
      "inputs": [],
      "name": "getInsurancePlanCount",
      "outputs": [
        {
          "internalType": "uint256",
          "name": "",
          "type": "uint256"
        }
      ],
      "stateMutability": "view",
      "type": "function"
    },
    {
      "inputs": [],
      "name": "getMedicationCount",
      "outputs": [
        {
          "internalType": "uint256",
          "name": "",
          "type": "uint256"
        }
      ],
      "stateMutability": "view",
      "type": "function"
    },
    {
      "inputs": [
        {
          "internalType": "address",
          "name": "_user",
          "type": "address"
        }
      ],
      "name": "getUserMedicationPurchases",
      "outputs": [
        {
          "components": [
            {
              "internalType": "uint256",
              "name": "medicationId",
              "type": "uint256"
            },
            {
              "internalType": "uint256",
              "name": "packageSize",
              "type": "uint256"
            },
            {
              "internalType": "uint256",
              "name": "quantity",
              "type": "uint256"
            },
            {
              "internalType": "uint256",
              "name": "totalPrice",
              "type": "uint256"
            },
            {
              "internalType": "uint256",
              "name": "purchaseDate",
              "type": "uint256"
            }
          ],
          "internalType": "struct HealthInsurance.MedicationPurchase[]",
          "name": "",
          "type": "tuple[]"
        }
      ],
      "stateMutability": "view",
      "type": "function"
    },
    {
      "inputs": [
        {
          "internalType": "address",
          "name": "_user",
          "type": "address"
        }
      ],
      "name": "getUserPolicies",
      "outputs": [
        {
          "components": [
            {
              "internalType": "uint256",
              "name": "planId",
              "type": "uint256"
            },
            {
              "internalType": "uint256",
              "name": "coverageAmount",
              "type": "uint256"
            },
            {
              "internalType": "uint256",
              "name": "purchaseDate",
              "type": "uint256"
            },
            {
              "internalType": "uint256",
              "name": "expiryDate",
              "type": "uint256"
            },
            {
              "internalType": "uint256",
              "name": "peopleCount",
              "type": "uint256"
            }
          ],
          "internalType": "struct HealthInsurance.UserPolicy[]",
          "name": "",
          "type": "tuple[]"
        }
      ],
      "stateMutability": "view",
      "type": "function"
    },
    {
      "inputs": [
        {
          "internalType": "uint256",
          "name": "",
          "type": "uint256"
        }
      ],
      "name": "insurancePlans",
      "outputs": [
        {
          "internalType": "string",
          "name": "name",
          "type": "string"
        },
        {
          "internalType": "string",
          "name": "description",
          "type": "string"
        },
        {
          "internalType": "uint256",
          "name": "basePriceWei",
          "type": "uint256"
        }
      ],
      "stateMutability": "view",
      "type": "function"
    },
    {
      "inputs": [
        {
          "internalType": "address",
          "name": "",
          "type": "address"
        },
        {
          "internalType": "uint256",
          "name": "",
          "type": "uint256"
        }
      ],
      "name": "medicationPurchases",
      "outputs": [
        {
          "internalType": "uint256",
          "name": "medicationId",
          "type": "uint256"
        },
        {
          "internalType": "uint256",
          "name": "packageSize",
          "type": "uint256"
        },
        {
          "internalType": "uint256",
          "name": "quantity",
          "type": "uint256"
        },
        {
          "internalType": "uint256",
          "name": "totalPrice",
          "type": "uint256"
        },
        {
          "internalType": "uint256",
          "name": "purchaseDate",
          "type": "uint256"
        }
      ],
      "stateMutability": "view",
      "type": "function"
    },
    {
      "inputs": [
        {
          "internalType": "uint256",
          "name": "",
          "type": "uint256"
        }
      ],
      "name": "medications",
      "outputs": [
        {
          "internalType": "string",
          "name": "name",
          "type": "string"
        },
        {
          "internalType": "string",
          "name": "description",
          "type": "string"
        },
        {
          "internalType": "string",
          "name": "category",
          "type": "string"
        },
        {
          "internalType": "uint256",
          "name": "priceWei",
          "type": "uint256"
        }
      ],
      "stateMutability": "view",
      "type": "function"
    },
    {
      "inputs": [],
      "name": "owner",
      "outputs": [
        {
          "internalType": "address",
          "name": "",
          "type": "address"
        }
      ],
      "stateMutability": "view",
      "type": "function"
    },
    {
      "inputs": [
        {
          "internalType": "uint256",
          "name": "_planId",
          "type": "uint256"
        },
        {
          "internalType": "uint256",
          "name": "_peopleCount",
          "type": "uint256"
        }
      ],
      "name": "purchaseInsurance",
      "outputs": [],
      "stateMutability": "payable",
      "type": "function"
    },
    {
      "inputs": [
        {
          "internalType": "uint256",
          "name": "_medicationId",
          "type": "uint256"
        },
        {
          "internalType": "uint256",
          "name": "_packageSize",
          "type": "uint256"
        },
        {
          "internalType": "uint256",
          "name": "_quantity",
          "type": "uint256"
        }
      ],
      "name": "purchaseMedication",
      "outputs": [],
      "stateMutability": "payable",
      "type": "function"
    },
    {
      "inputs": [],
      "name": "renounceOwnership",
      "outputs": [],
      "stateMutability": "nonpayable",
      "type": "function"
    },
    {
      "inputs": [
        {
          "internalType": "address",
          "name": "newOwner",
          "type": "address"
        }
      ],
      "name": "transferOwnership",
      "outputs": [],
      "stateMutability": "nonpayable",
      "type": "function"
    },
    {
      "inputs": [
        {
          "internalType": "address",
          "name": "",
          "type": "address"
        },
        {
          "internalType": "uint256",
          "name": "",
          "type": "uint256"
        }
      ],
      "name": "userPolicies",
      "outputs": [
        {
          "internalType": "uint256",
          "name": "planId",
          "type": "uint256"
        },
        {
          "internalType": "uint256",
          "name": "coverageAmount",
          "type": "uint256"
        },
        {
          "internalType": "uint256",
          "name": "purchaseDate",
          "type": "uint256"
        },
        {
          "internalType": "uint256",
          "name": "expiryDate",
          "type": "uint256"
        },
        {
          "internalType": "uint256",
          "name": "peopleCount",
          "type": "uint256"
        }
      ],
      "stateMutability": "view",
      "type": "function"
    },
    {
      "inputs": [],
      "name": "withdraw",
      "outputs": [],
      "stateMutability": "nonpayable",
      "type": "function"
    }
  ],
  "bytecode": "0x60806040523480156200001157600080fd5b50620000326200002662000b2360201b60201c565b62000b2b60201b60201c565b60018081905550600260405180606001604052806040518060400160405280600b81526020017f44656e74616c2043617265000000000000000000000000000000000000000000815250815260200160405180606001604052806036815260200162004020603691398152602001662386f26fc1000081525090806001815401808255809150506001900390600052602060002090600302016000909190919091506000820151816000019081620000eb919062000e69565b50602082015181600101908162000103919062000e69565b50604082015181600201555050600260405180606001604052806040518060400160405280600e81526020017f47656e6572616c204865616c746800000000000000000000000000000000000081525081526020016040518060800160405280604581526020016200405660459139815260200166470de4df82000081525090806001815401808255809150506001900390600052602060002090600302016000909190919091506000820151816000019081620001c2919062000e69565b506020820151816001019081620001da919062000e69565b50604082015181600201555050600260405180606001604052806040518060400160405280600b81526020017f566973696f6e2043617265000000000000000000000000000000000000000000815250815260200160405180606001604052806034815260200162003fb2603491398152602001661c6bf5263400008152509080600181540180825580915050600190039060005260206000209060030201600090919091909150600082015181600001908162000299919062000e69565b506020820151816001019081620002b1919062000e69565b50604082015181600201555050600260405180606001604052806040518060400160405280601181526020017f50726576656e746174697665204361726500000000000000000000000000000081525081526020016040518060600160405280603a815260200162003fe6603a9139815260200166354a6ba7a180008152509080600181540180825580915050600190039060005260206000209060030201600090919091909150600082015181600001908162000370919062000e69565b50602082015181600101908162000388919062000e69565b50604082015181600201555050600360405180608001604052806040518060400160405280600981526020017f49627570726f66656e000000000000000000000000000000000000000000000081525081526020016040518060400160405280601f81526020017f5061696e2072656c696576657220616e6420666576657220726564756365720081525081526020016040518060400160405280600b81526020017f5061696e2052656c696566000000000000000000000000000000000000000000815250815260200166038d7ea4c68000815250908060018154018082558091505060019003906000526020600020906004020160009091909190915060008201518160000190816200049e919062000e69565b506020820151816001019081620004b6919062000e69565b506040820151816002019081620004ce919062000e69565b50606082015181600301555050600360405180608001604052806040518060400160405280600d81526020017f41636574616d696e6f7068656e0000000000000000000000000000000000000081525081526020016040518060400160405280601f81526020017f5061696e2072656c696576657220616e6420666576657220726564756365720081525081526020016040518060400160405280600b81526020017f5061696e2052656c69656600000000000000000000000000000000000000000081525081526020016602d79883d2000081525090806001815401808255809150506001900390600052602060002090600402016000909190919091506000820151816000019081620005e4919062000e69565b506020820151816001019081620005fc919062000e69565b50604082015181600201908162000614919062000e69565b50606082015181600301555050600360405180608001604052806040518060400160405280600b81526020017f416d6f786963696c6c696e000000000000000000000000000000000000000000815250815260200160405180606001604052806023815260200162003f8f6023913981526020016040518060400160405280600b81526020017f416e746962696f746963730000000000000000000000000000000000000000008152508152602001660aa87bee538000815250908060018154018082558091505060019003906000526020600020906004020160009091909190915060008201518160000190816200070e919062000e69565b50602082015181600101908162000726919062000e69565b5060408201518160020190816200073e919062000e69565b50606082015181600301555050600360405180608001604052806040518060400160405280600a81526020017f4c6f7261746164696e650000000000000000000000000000000000000000000081525081526020016040518060400160405280602081526020017f416e746968697374616d696e6520666f7220616c6c657267792072656c69656681525081526020016040518060400160405280600781526020017f416c6c657267790000000000000000000000000000000000000000000000000081525081526020016605543df729c0008152509080600181540180825580915050600190039060005260206000209060040201600090919091909150600082015181600001908162000854919062000e69565b5060208201518160010190816200086c919062000e69565b50604082015181600201908162000884919062000e69565b50606082015181600301555050600360405180608001604052806040518060400160405280600f81526020017f50736575646f657068656472696e65000000000000000000000000000000000081525081526020016040518060400160405280601f81526020017f4465636f6e67657374616e7420666f7220636f6c6420616e642073696e75730081525081526020016040518060400160405280600a81526020017f436f6c64202620466c7500000000000000000000000000000000000000000000815250815260200166071afd498d0000815250908060018154018082558091505060019003906000526020600020906004020160009091909190915060008201518160000190816200099a919062000e69565b506020820151816001019081620009b2919062000e69565b506040820151816002019081620009ca919062000e69565b50606082015181600301555050600360405180608001604052806040518060400160405280600c81526020017f4d756c7469766974616d696e000000000000000000000000000000000000000081525081526020016040518060400160405280601c81526020017f4461696c79206e7574726974696f6e616c20737570706c656d656e740000000081525081526020016040518060400160405280600881526020017f566974616d696e73000000000000000000000000000000000000000000000000815250815260200166038d7ea4c680008152509080600181540180825580915050600190039060005260206000209060040201600090919091909150600082015181600001908162000ae0919062000e69565b50602082015181600101908162000af8919062000e69565b50604082015181600201908162000b10919062000e69565b5060608201518160030155505062000f50565b600033905090565b60008060009054906101000a900473ffffffffffffffffffffffffffffffffffffffff169050816000806101000a81548173ffffffffffffffffffffffffffffffffffffffff021916908373ffffffffffffffffffffffffffffffffffffffff1602179055508173ffffffffffffffffffffffffffffffffffffffff168173ffffffffffffffffffffffffffffffffffffffff167f8be0079c531659141344cd1fd0a4f28419497f9722a3daafe3b4186f6b6457e060405160405180910390a35050565b600081519050919050565b7f4e487b7100000000000000000000000000000000000000000000000000000000600052604160045260246000fd5b7f4e487b7100000000000000000000000000000000000000000000000000000000600052602260045260246000fd5b6000600282049050600182168062000c7157607f821691505b60208210810362000c875762000c8662000c29565b5b50919050565b60008190508160005260206000209050919050565b60006020601f8301049050919050565b600082821b905092915050565b60006008830262000cf17fffffffffffffffffffffffffffffffffffffffffffffffffffffffffffffffff8262000cb2565b62000cfd868362000cb2565b95508019841693508086168417925050509392505050565b6000819050919050565b6000819050919050565b600062000d4a62000d4462000d3e8462000d15565b62000d1f565b62000d15565b9050919050565b6000819050919050565b62000d668362000d29565b62000d7e62000d758262000d51565b84845462000cbf565b825550505050565b600090565b62000d9562000d86565b62000da281848462000d5b565b505050565b5b8181101562000dca5762000dbe60008262000d8b565b60018101905062000da8565b5050565b601f82111562000e195762000de38162000c8d565b62000dee8462000ca2565b8101602085101562000dfe578190505b62000e1662000e0d8562000ca2565b83018262000da7565b50505b505050565b600082821c905092915050565b600062000e3e6000198460080262000e1e565b1980831691505092915050565b600062000e59838362000e2b565b9150826002028217905092915050565b62000e748262000bef565b67ffffffffffffffff81111562000e905762000e8f62000bfa565b5b62000e9c825462000c58565b62000ea982828562000dce565b600060209050601f83116001811462000ee1576000841562000ecc578287015190505b62000ed8858262000e4b565b86555062000f48565b601f19841662000ef18662000c8d565b60005b8281101562000f1b5784890151825560018201915060208501945060208101905062000ef4565b8683101562000f3b578489015162000f37601f89168262000e2b565b8355505b6001600288020188555050505b505050505050565b61302f8062000f606000396000f3fe6080604052600436106101095760003560e01c806391ca850b11610095578063ec1b706611610064578063ec1b70661461033c578063f2fde38b1461037b578063f9fa132a146103a4578063fa8547f6146103c0578063fd572ba11461040057610109565b806391ca850b1461029f578063a49c224c146102ca578063b40e609e146102f5578063e515cc7f1461032057610109565b80633d36adc5116100dc5780633d36adc5146101c857806350ef75f3146102095780635e96b68714610234578063715018a61461025d5780638da5cb5b1461027457610109565b806319ac46141461010e5780631a378e891461014b578063336d531a146101885780633ccfd60b146101b1575b600080fd5b34801561011a57600080fd5b5061013560048036038101906101309190611b7e565b610441565b6040516101429190611cdb565b60405180910390f35b34801561015757600080fd5b50610172600480360381019061016d9190611b7e565b610511565b60405161017f9190611e14565b60405180910390f35b34801561019457600080fd5b506101af60048036038101906101aa9190611fa8565b6105e1565b005b3480156101bd57600080fd5b506101c6610689565b005b3480156101d457600080fd5b506101ef60048036038101906101ea9190612063565b61077f565b6040516102009594939291906120b2565b60405180910390f35b34801561021557600080fd5b5061021e6107d2565b60405161022b919061229d565b60405180910390f35b34801561024057600080fd5b5061025b600480360381019061025691906122bf565b61095f565b005b34801561026957600080fd5b506102726109ea565b005b34801561028057600080fd5b506102896109fe565b6040516102969190612359565b60405180910390f35b3480156102ab57600080fd5b506102b4610a27565b6040516102c19190612374565b60405180910390f35b3480156102d657600080fd5b506102df610a34565b6040516102ec9190612374565b60405180910390f35b34801561030157600080fd5b5061030a610a41565b60405161031791906124c2565b60405180910390f35b61033a600480360381019061033591906124e4565b610c60565b005b34801561034857600080fd5b50610363600480360381019061035e9190612524565b61106f565b6040516103729392919061259b565b60405180910390f35b34801561038757600080fd5b506103a2600480360381019061039d9190611b7e565b6111b9565b005b6103be60048036038101906103b991906125e0565b61123c565b005b3480156103cc57600080fd5b506103e760048036038101906103e29190612524565b61173f565b6040516103f79493929190612633565b60405180910390f35b34801561040c57600080fd5b5061042760048036038101906104229190612063565b611917565b6040516104389594939291906120b2565b60405180910390f35b6060600460008373ffffffffffffffffffffffffffffffffffffffff1673ffffffffffffffffffffffffffffffffffffffff168152602001908152602001600020805480602002602001604051908101604052809291908181526020016000905b8282101561050657838290600052602060002090600502016040518060a001604052908160008201548152602001600182015481526020016002820154815260200160038201548152602001600482015481525050815260200190600101906104a2565b505050509050919050565b6060600560008373ffffffffffffffffffffffffffffffffffffffff1673ffffffffffffffffffffffffffffffffffffffff168152602001908152602001600020805480602002602001604051908101604052809291908181526020016000905b828210156105d657838290600052602060002090600502016040518060a00160405290816000820154815260200160018201548152602001600282015481526020016003820154815260200160048201548152505081526020019060010190610572565b505050509050919050565b6105e961196a565b60036040518060800160405280868152602001858152602001848152602001838152509080600181540180825580915050600190039060005260206000209060040201600090919091909150600082015181600001908161064a9190612899565b5060208201518160010190816106609190612899565b5060408201518160020190816106769190612899565b5060608201518160030155505050505050565b61069161196a565b6000479050600081116106d9576040517f08c379a00000000000000000000000000000000000000000000000000000000081526004016106d0906129b7565b60405180910390fd5b6106e16109fe565b73ffffffffffffffffffffffffffffffffffffffff166108fc829081150290604051600060405180830381858888f19350505050158015610726573d6000803e3d6000fd5b5061072f6109fe565b73ffffffffffffffffffffffffffffffffffffffff167fbc158bb64f05d6383aea69bbb0b20c1bbf4b7a18f63359c5649b7c39e29d3884826040516107749190612374565b60405180910390a250565b6004602052816000526040600020818154811061079b57600080fd5b9060005260206000209060050201600091509150508060000154908060010154908060020154908060030154908060040154905085565b60606002805480602002602001604051908101604052809291908181526020016000905b828210156109565783829060005260206000209060030201604051806060016040529081600082018054610829906126bc565b80601f0160208091040260200160405190810160405280929190818152602001828054610855906126bc565b80156108a25780601f10610877576101008083540402835291602001916108a2565b820191906000526020600020905b81548152906001019060200180831161088557829003601f168201915b505050505081526020016001820180546108bb906126bc565b80601f01602080910402602001604051908101604052809291908181526020018280546108e7906126bc565b80156109345780601f1061090957610100808354040283529160200191610934565b820191906000526020600020905b81548152906001019060200180831161091757829003601f168201915b50505050508152602001600282015481525050815260200190600101906107f6565b50505050905090565b61096761196a565b6002604051806060016040528085815260200184815260200183815250908060018154018082558091505060019003906000526020600020906003020160009091909190915060008201518160000190816109c29190612899565b5060208201518160010190816109d89190612899565b50604082015181600201555050505050565b6109f261196a565b6109fc60006119e8565b565b60008060009054906101000a900473ffffffffffffffffffffffffffffffffffffffff16905090565b6000600380549050905090565b6000600280549050905090565b60606003805480602002602001604051908101604052809291908181526020016000905b82821015610c575783829060005260206000209060040201604051806080016040529081600082018054610a98906126bc565b80601f0160208091040260200160405190810160405280929190818152602001828054610ac4906126bc565b8015610b115780601f10610ae657610100808354040283529160200191610b11565b820191906000526020600020905b815481529060010190602001808311610af457829003601f168201915b50505050508152602001600182018054610b2a906126bc565b80601f0160208091040260200160405190810160405280929190818152602001828054610b56906126bc565b8015610ba35780601f10610b7857610100808354040283529160200191610ba3565b820191906000526020600020905b815481529060010190602001808311610b8657829003601f168201915b50505050508152602001600282018054610bbc906126bc565b80601f0160208091040260200160405190810160405280929190818152602001828054610be8906126bc565b8015610c355780601f10610c0a57610100808354040283529160200191610c35565b820191906000526020600020905b815481529060010190602001808311610c1857829003601f168201915b5050505050815260200160038201548152505081526020019060010190610a65565b50505050905090565b610c68611aac565b6002805490508210610caf576040517f08c379a0000000000000000000000000000000000000000000000000000000008152600401610ca690612a23565b60405180910390fd5b600081118015610cc0575060058111155b610cff576040517f08c379a0000000000000000000000000000000000000000000000000000000008152600401610cf690612ab5565b60405180910390fd5b600060028381548110610d1557610d14612ad5565b5b9060005260206000209060030201604051806060016040529081600082018054610d3e906126bc565b80601f0160208091040260200160405190810160405280929190818152602001828054610d6a906126bc565b8015610db75780601f10610d8c57610100808354040283529160200191610db7565b820191906000526020600020905b815481529060010190602001808311610d9a57829003601f168201915b50505050508152602001600182018054610dd0906126bc565b80601f0160208091040260200160405190810160405280929190818152602001828054610dfc906126bc565b8015610e495780601f10610e1e57610100808354040283529160200191610e49565b820191906000526020600020905b815481529060010190602001808311610e2c57829003601f168201915b505050505081526020016002820154815250509050600060018303610e745781604001519050610e9f565b6064605f848460400151610e889190612b33565b610e929190612b33565b610e9c9190612ba4565b90505b80341015610ee2576040517f08c379a0000000000000000000000000000000000000000000000000000000008152600401610ed990612c21565b60405180910390fd5b600460003373ffffffffffffffffffffffffffffffffffffffff1673ffffffffffffffffffffffffffffffffffffffff1681526020019081526020016000206040518060a001604052808681526020018381526020014281526020016301e1338042610f4e9190612c41565b8152602001858152509080600181540180825580915050600190039060005260206000209060050201600090919091909150600082015181600001556020820151816001015560408201518160020155606082015181600301556080820151816004015550503373ffffffffffffffffffffffffffffffffffffffff167f7000580a6e3747e318650b055e5e30c38af1f23e69d9baf2c3bbc5fa99398062858584604051610ffe93929190612c75565b60405180910390a280341115611061573373ffffffffffffffffffffffffffffffffffffffff166108fc82346110349190612cac565b9081150290604051600060405180830381858888f1935050505015801561105f573d6000803e3d6000fd5b505b505061106b611afb565b5050565b6002818154811061107f57600080fd5b90600052602060002090600302016000915090508060000180546110a2906126bc565b80601f01602080910402602001604051908101604052809291908181526020018280546110ce906126bc565b801561111b5780601f106110f05761010080835404028352916020019161111b565b820191906000526020600020905b8154815290600101906020018083116110fe57829003601f168201915b505050505090806001018054611130906126bc565b80601f016020809104026020016040519081016040528092919081815260200182805461115c906126bc565b80156111a95780601f1061117e576101008083540402835291602001916111a9565b820191906000526020600020905b81548152906001019060200180831161118c57829003601f168201915b5050505050908060020154905083565b6111c161196a565b600073ffffffffffffffffffffffffffffffffffffffff168173ffffffffffffffffffffffffffffffffffffffff1603611230576040517f08c379a000000000000000000000000000000000000000000000000000000000815260040161122790612d52565b60405180910390fd5b611239816119e8565b50565b611244611aac565b600380549050831061128b576040517f08c379a000000000000000000000000000000000000000000000000000000000815260040161128290612dbe565b60405180910390fd5b600a82148061129a5750601e82145b806112a55750603c82145b6112e4576040517f08c379a00000000000000000000000000000000000000000000000000000000081526004016112db90612e50565b60405180910390fd5b6000811180156112f5575060058111155b611334576040517f08c379a000000000000000000000000000000000000000000000000000000000815260040161132b90612ebc565b60405180910390fd5b60006003848154811061134a57611349612ad5565b5b9060005260206000209060040201604051806080016040529081600082018054611373906126bc565b80601f016020809104026020016040519081016040528092919081815260200182805461139f906126bc565b80156113ec5780601f106113c1576101008083540402835291602001916113ec565b820191906000526020600020905b8154815290600101906020018083116113cf57829003601f168201915b50505050508152602001600182018054611405906126bc565b80601f0160208091040260200160405190810160405280929190818152602001828054611431906126bc565b801561147e5780601f106114535761010080835404028352916020019161147e565b820191906000526020600020905b81548152906001019060200180831161146157829003601f168201915b50505050508152602001600282018054611497906126bc565b80601f01602080910402602001604051908101604052809291908181526020018280546114c3906126bc565b80156115105780601f106114e557610100808354040283529160200191611510565b820191906000526020600020905b8154815290600101906020018083116114f357829003601f168201915b5050505050815260200160038201548152505090506000600a8403611538576001905061154f565b601e840361154957601c905061154e565b603790505b5b6000600a848385606001516115649190612b33565b61156e9190612b33565b6115789190612ba4565b9050803410156115bd576040517f08c379a00000000000000000000000000000000000000000000000000000000081526004016115b490612c21565b60405180910390fd5b600560003373ffffffffffffffffffffffffffffffffffffffff1673ffffffffffffffffffffffffffffffffffffffff1681526020019081526020016000206040518060a00160405280888152602001878152602001868152602001838152602001428152509080600181540180825580915050600190039060005260206000209060050201600090919091909150600082015181600001556020820151816001015560408201518160020155606082015181600301556080820151816004015550503373ffffffffffffffffffffffffffffffffffffffff167f9da55806a490e7dea35c2844f03ceb6dfaaad91197d1336880d8dabf4607050c878787856040516116cc9493929190612edc565b60405180910390a28034111561172f573373ffffffffffffffffffffffffffffffffffffffff166108fc82346117029190612cac565b9081150290604051600060405180830381858888f1935050505015801561172d573d6000803e3d6000fd5b505b50505061173a611afb565b505050565b6003818154811061174f57600080fd5b9060005260206000209060040201600091509050806000018054611772906126bc565b80601f016020809104026020016040519081016040528092919081815260200182805461179e906126bc565b80156117eb5780601f106117c0576101008083540402835291602001916117eb565b820191906000526020600020905b8154815290600101906020018083116117ce57829003601f168201915b505050505090806001018054611800906126bc565b80601f016020809104026020016040519081016040528092919081815260200182805461182c906126bc565b80156118795780601f1061184e57610100808354040283529160200191611879565b820191906000526020600020905b81548152906001019060200180831161185c57829003601f168201915b50505050509080600201805461188e906126bc565b80601f01602080910402602001604051908101604052809291908181526020018280546118ba906126bc565b80156119075780601f106118dc57610100808354040283529160200191611907565b820191906000526020600020905b8154815290600101906020018083116118ea57829003601f168201915b5050505050908060030154905084565b6005602052816000526040600020818154811061193357600080fd5b9060005260206000209060050201600091509150508060000154908060010154908060020154908060030154908060040154905085565b611972611b04565b73ffffffffffffffffffffffffffffffffffffffff166119906109fe565b73ffffffffffffffffffffffffffffffffffffffff16146119e6576040517f08c379a00000000000000000000000000000000000000000000000000000000081526004016119dd90612f6d565b60405180910390fd5b565b60008060009054906101000a900473ffffffffffffffffffffffffffffffffffffffff169050816000806101000a81548173ffffffffffffffffffffffffffffffffffffffff021916908373ffffffffffffffffffffffffffffffffffffffff1602179055508173ffffffffffffffffffffffffffffffffffffffff168173ffffffffffffffffffffffffffffffffffffffff167f8be0079c531659141344cd1fd0a4f28419497f9722a3daafe3b4186f6b6457e060405160405180910390a35050565b600260015403611af1576040517f08c379a0000000000000000000000000000000000000000000000000000000008152600401611ae890612fd9565b60405180910390fd5b6002600181905550565b60018081905550565b600033905090565b6000604051905090565b600080fd5b600080fd5b600073ffffffffffffffffffffffffffffffffffffffff82169050919050565b6000611b4b82611b20565b9050919050565b611b5b81611b40565b8114611b6657600080fd5b50565b600081359050611b7881611b52565b92915050565b600060208284031215611b9457611b93611b16565b5b6000611ba284828501611b69565b91505092915050565b600081519050919050565b600082825260208201905092915050565b6000819050602082019050919050565b6000819050919050565b611bea81611bd7565b82525050565b60a082016000820151611c066000850182611be1565b506020820151611c196020850182611be1565b506040820151611c2c6040850182611be1565b506060820151611c3f6060850182611be1565b506080820151611c526080850182611be1565b50505050565b6000611c648383611bf0565b60a08301905092915050565b6000602082019050919050565b6000611c8882611bab565b611c928185611bb6565b9350611c9d83611bc7565b8060005b83811015611cce578151611cb58882611c58565b9750611cc083611c70565b925050600181019050611ca1565b5085935050505092915050565b60006020820190508181036000830152611cf58184611c7d565b905092915050565b600081519050919050565b600082825260208201905092915050565b6000819050602082019050919050565b60a082016000820151611d3f6000850182611be1565b506020820151611d526020850182611be1565b506040820151611d656040850182611be1565b506060820151611d786060850182611be1565b506080820151611d8b6080850182611be1565b50505050565b6000611d9d8383611d29565b60a08301905092915050565b6000602082019050919050565b6000611dc182611cfd565b611dcb8185611d08565b9350611dd683611d19565b8060005b83811015611e07578151611dee8882611d91565b9750611df983611da9565b925050600181019050611dda565b5085935050505092915050565b60006020820190508181036000830152611e2e8184611db6565b905092915050565b600080fd5b600080fd5b6000601f19601f8301169050919050565b7f4e487b7100000000000000000000000000000000000000000000000000000000600052604160045260246000fd5b611e8982611e40565b810181811067ffffffffffffffff82111715611ea857611ea7611e51565b5b80604052505050565b6000611ebb611b0c565b9050611ec78282611e80565b919050565b600067ffffffffffffffff821115611ee757611ee6611e51565b5b611ef082611e40565b9050602081019050919050565b82818337600083830152505050565b6000611f1f611f1a84611ecc565b611eb1565b905082815260208101848484011115611f3b57611f3a611e3b565b5b611f46848285611efd565b509392505050565b600082601f830112611f6357611f62611e36565b5b8135611f73848260208601611f0c565b91505092915050565b611f8581611bd7565b8114611f9057600080fd5b50565b600081359050611fa281611f7c565b92915050565b60008060008060808587031215611fc257611fc1611b16565b5b600085013567ffffffffffffffff811115611fe057611fdf611b1b565b5b611fec87828801611f4e565b945050602085013567ffffffffffffffff81111561200d5761200c611b1b565b5b61201987828801611f4e565b935050604085013567ffffffffffffffff81111561203a57612039611b1b565b5b61204687828801611f4e565b925050606061205787828801611f93565b91505092959194509250565b6000806040838503121561207a57612079611b16565b5b600061208885828601611b69565b925050602061209985828601611f93565b9150509250929050565b6120ac81611bd7565b82525050565b600060a0820190506120c760008301886120a3565b6120d460208301876120a3565b6120e160408301866120a3565b6120ee60608301856120a3565b6120fb60808301846120a3565b9695505050505050565b600081519050919050565b600082825260208201905092915050565b6000819050602082019050919050565b600081519050919050565b600082825260208201905092915050565b60005b8381101561216b578082015181840152602081019050612150565b60008484015250505050565b600061218282612131565b61218c818561213c565b935061219c81856020860161214d565b6121a581611e40565b840191505092915050565b600060608301600083015184820360008601526121cd8282612177565b915050602083015184820360208601526121e78282612177565b91505060408301516121fc6040860182611be1565b508091505092915050565b600061221383836121b0565b905092915050565b6000602082019050919050565b600061223382612105565b61223d8185612110565b93508360208202850161224f85612121565b8060005b8581101561228b578484038952815161226c8582612207565b94506122778361221b565b925060208a01995050600181019050612253565b50829750879550505050505092915050565b600060208201905081810360008301526122b78184612228565b905092915050565b6000806000606084860312156122d8576122d7611b16565b5b600084013567ffffffffffffffff8111156122f6576122f5611b1b565b5b61230286828701611f4e565b935050602084013567ffffffffffffffff81111561232357612322611b1b565b5b61232f86828701611f4e565b925050604061234086828701611f93565b9150509250925092565b61235381611b40565b82525050565b600060208201905061236e600083018461234a565b92915050565b600060208201905061238960008301846120a3565b92915050565b600081519050919050565b600082825260208201905092915050565b6000819050602082019050919050565b600060808301600083015184820360008601526123d88282612177565b915050602083015184820360208601526123f28282612177565b9150506040830151848203604086015261240c8282612177565b91505060608301516124216060860182611be1565b508091505092915050565b600061243883836123bb565b905092915050565b6000602082019050919050565b60006124588261238f565b612462818561239a565b935083602082028501612474856123ab565b8060005b858110156124b05784840389528151612491858261242c565b945061249c83612440565b925060208a01995050600181019050612478565b50829750879550505050505092915050565b600060208201905081810360008301526124dc818461244d565b905092915050565b600080604083850312156124fb576124fa611b16565b5b600061250985828601611f93565b925050602061251a85828601611f93565b9150509250929050565b60006020828403121561253a57612539611b16565b5b600061254884828501611f93565b91505092915050565b600082825260208201905092915050565b600061256d82612131565b6125778185612551565b935061258781856020860161214d565b61259081611e40565b840191505092915050565b600060608201905081810360008301526125b58186612562565b905081810360208301526125c98185612562565b90506125d860408301846120a3565b949350505050565b6000806000606084860312156125f9576125f8611b16565b5b600061260786828701611f93565b935050602061261886828701611f93565b925050604061262986828701611f93565b9150509250925092565b6000608082019050818103600083015261264d8187612562565b905081810360208301526126618186612562565b905081810360408301526126758185612562565b905061268460608301846120a3565b95945050505050565b7f4e487b7100000000000000000000000000000000000000000000000000000000600052602260045260246000fd5b600060028204905060018216806126d457607f821691505b6020821081036126e7576126e661268d565b5b50919050565b60008190508160005260206000209050919050565b60006020601f8301049050919050565b600082821b905092915050565b60006008830261274f7fffffffffffffffffffffffffffffffffffffffffffffffffffffffffffffffff82612712565b6127598683612712565b95508019841693508086168417925050509392505050565b6000819050919050565b600061279661279161278c84611bd7565b612771565b611bd7565b9050919050565b6000819050919050565b6127b08361277b565b6127c46127bc8261279d565b84845461271f565b825550505050565b600090565b6127d96127cc565b6127e48184846127a7565b505050565b5b81811015612808576127fd6000826127d1565b6001810190506127ea565b5050565b601f82111561284d5761281e816126ed565b61282784612702565b81016020851015612836578190505b61284a61284285612702565b8301826127e9565b50505b505050565b600082821c905092915050565b600061287060001984600802612852565b1980831691505092915050565b6000612889838361285f565b9150826002028217905092915050565b6128a282612131565b67ffffffffffffffff8111156128bb576128ba611e51565b5b6128c582546126bc565b6128d082828561280c565b600060209050601f83116001811461290357600084156128f1578287015190505b6128fb858261287d565b865550612963565b601f198416612911866126ed565b60005b8281101561293957848901518255600182019150602085019450602081019050612914565b868310156129565784890151612952601f89168261285f565b8355505b6001600288020188555050505b505050505050565b7f4e6f2062616c616e636520746f20776974686472617700000000000000000000600082015250565b60006129a1601683612551565b91506129ac8261296b565b602082019050919050565b600060208201905081810360008301526129d081612994565b9050919050565b7f496e76616c696420706c616e2049440000000000000000000000000000000000600082015250565b6000612a0d600f83612551565b9150612a18826129d7565b602082019050919050565b60006020820190508181036000830152612a3c81612a00565b9050919050565b7f50656f706c6520636f756e74206d757374206265206265747765656e2031206160008201527f6e64203500000000000000000000000000000000000000000000000000000000602082015250565b6000612a9f602483612551565b9150612aaa82612a43565b604082019050919050565b60006020820190508181036000830152612ace81612a92565b9050919050565b7f4e487b7100000000000000000000000000000000000000000000000000000000600052603260045260246000fd5b7f4e487b7100000000000000000000000000000000000000000000000000000000600052601160045260246000fd5b6000612b3e82611bd7565b9150612b4983611bd7565b9250828202612b5781611bd7565b91508282048414831517612b6e57612b6d612b04565b5b5092915050565b7f4e487b7100000000000000000000000000000000000000000000000000000000600052601260045260246000fd5b6000612baf82611bd7565b9150612bba83611bd7565b925082612bca57612bc9612b75565b5b828204905092915050565b7f496e73756666696369656e74207061796d656e74000000000000000000000000600082015250565b6000612c0b601483612551565b9150612c1682612bd5565b602082019050919050565b60006020820190508181036000830152612c3a81612bfe565b9050919050565b6000612c4c82611bd7565b9150612c5783611bd7565b9250828201905080821115612c6f57612c6e612b04565b5b92915050565b6000606082019050612c8a60008301866120a3565b612c9760208301856120a3565b612ca460408301846120a3565b949350505050565b6000612cb782611bd7565b9150612cc283611bd7565b9250828203905081811115612cda57612cd9612b04565b5b92915050565b7f4f776e61626c653a206e6577206f776e657220697320746865207a65726f206160008201527f6464726573730000000000000000000000000000000000000000000000000000602082015250565b6000612d3c602683612551565b9150612d4782612ce0565b604082019050919050565b60006020820190508181036000830152612d6b81612d2f565b9050919050565b7f496e76616c6964206d656469636174696f6e2049440000000000000000000000600082015250565b6000612da8601583612551565b9150612db382612d72565b602082019050919050565b60006020820190508181036000830152612dd781612d9b565b9050919050565b7f5061636b6167652073697a65206d7573742062652031302c2033302c206f722060008201527f3630000000000000000000000000000000000000000000000000000000000000602082015250565b6000612e3a602283612551565b9150612e4582612dde565b604082019050919050565b60006020820190508181036000830152612e6981612e2d565b9050919050565b7f5175616e74697479206d757374206265206265747765656e203120616e642035600082015250565b6000612ea6602083612551565b9150612eb182612e70565b602082019050919050565b60006020820190508181036000830152612ed581612e99565b9050919050565b6000608082019050612ef160008301876120a3565b612efe60208301866120a3565b612f0b60408301856120a3565b612f1860608301846120a3565b95945050505050565b7f4f776e61626c653a2063616c6c6572206973206e6f7420746865206f776e6572600082015250565b6000612f57602083612551565b9150612f6282612f21565b602082019050919050565b60006020820190508181036000830152612f8681612f4a565b9050919050565b7f5265656e7472616e637947756172643a207265656e7472616e742063616c6c00600082015250565b6000612fc3601f83612551565b9150612fce82612f8d565b602082019050919050565b60006020820190508181036000830152612ff281612fb6565b905091905056fea264697066735822122007bb8b907e88bea6df4d30438b825e6440b4f91b4ce25b89906e8e4557fd092f64736f6c63430008130033416e746962696f74696320666f722062616374657269616c20696e66656374696f6e73457965206578616d7320616e6420707265736372697074696f6e20676c61737365732f636f6e746163747320636f76657261676557656c6c6e657373207669736974732c2076616363696e6174696f6e732c20616e642070726576656e7461746976652073637265656e696e677342617369632064656e74616c20636f76657261676520696e636c7564696e6720636c65616e696e677320616e642066696c6c696e6773436f6d70726568656e73697665206865616c746820636f76657261676520666f7220726567756c617220636865636b75707320616e6420656d657267656e63792063617265",
  "linkReferences": {},
  "deployedLinkReferences": {}
}